S00C0000506F6E672E7372656384
S11300000C945A000C9477000C9477000C947700AD
S11300100C9477000C9477000C9477000C94770080
S11300200C9477000C9477000C9477000C940C04D7
S11300300C9477000C9477000C9477000C94770060
S11300400C9477000C9477000C9477000C94770050
S11300500C9477000C9477000C9477000C94770040
S11300600C9477000C9477000C9477000C94770030
S11300700C9477000C9477000C9477000C94770020
S11300800C9477000C9477000C9477000C94770010
S11300900C9477000C9477000C9477000C94770000
S11300A00C9477000C9477000C9477000C947700F0
S11300B00C94770011241FBECFEFD8E0DEBFCDBF74
S11300C011E0A0E0B1E0E6E6FAE002C005900D928E
S11300D0AE31B107D9F721E0AEE1B1E001C01D9224
S11300E0A132B207E1F70E94C3030C9431050C94CA
S11300F0000030911E0130FD06C090911A0120913C
S11301001B0131E020C090911A0120911B0130E0C5
S113011040911901509118016091200170911F01C3
S113012081E0680F731F6093200170931F014617CD
S113013057074CF4F894A0E0A0936F00A6BFA0E08A
S1130140A09380007894A09188009A0FA0918900D0
S11301502A1F209389009093880030FD00C03093BB
S11301601E010895FC0111821082168215821282EA
S113017082E0838391E197838087148211860895B6
S1130180CF93DF93C82FD62F61E082E08D0F0E94BA
S1130190AE039DECC99F912D112496959695969545
S11301A0990F892F880F880F980F8C2F891B805DDA
S11301B00E941D03CA3050F161E081E08D0F0E945E
S11301C0AE0389E2C89F812D112482958F709C2FE4
S11301D024E6829F90191124892F9DEC899F812DFB
S11301E01124869586958695805D0E941D03C436EC
S11301F068F061E08D2F0E94AE0389E2C89F812DD3
S1130200112482958F70805D0E941D03DF91CF9130
S113021008950F931F93CF93DF93EC018B0181E03B
S11302200E940B038FED9EE20197F1F700C00000DE
S113023082E00E940B038C8163E070E090E00E94F6
S1130240C000898560E170E090E00E94C000F80180
S1130250618180810E94AE038FE60E941D038A8122
S11302606B818E5F0E94AE038CE70E941D036B813D
S11302708A816F5F8E5F0E94AE038CE70E941D032C
S11302808F8168858E5F0E94AE038CE70E941D03F8
S113029068858F816F5F8E5F0E94AE038CE70E943A
S11302A01D03DF91CF911F910F9108950F931F9319
S11302B0CF93DF938C01EB018881813091F4F801B5
S11302C081858F5F81878881865F88830E949204FD
S11302D0FFEF2BE782E9F15020408040E1F700C0B6
S11302E000008881843191F4F80184818F5F8483D4
S11302F088818A5088830E949204FFEF21E18AE773
S1130300F15020408040E1F700C00000DF91CF9120
S11303101F910F9108950F93FC0160834183228301
S113032003830F910895CF93DF93EC0128819A8181
S113033031E0213009F030E0892F881F8827881F99
S1130340832311F091959A839A8131E0243109F045
S113035030E081E019160CF080E0832311F09195D0
S11303609A8389819B8121E0813009F020E0892FE3
S1130370881F8827881F822321F091959B830E94E0
S1130380C00489819B8121E0843009F020E081E070
S113039019160CF080E0822321F091959B830E9432
S11303A0C004DF91CF910895CF93DF93EC010E94B5
S11303B093018A819881890F88838B819981890F20
S11303C08983DF91CF910895EF92FF920F931F934A
S11303D0CF93DF93F42EE22EE801288190E0039678
S11303E07A8130E041E02817390709F040E0872F8F
S11303F0881F8827881F342F38238981462F50E08F
S11304004F5F5F4FE1E08613E0E090E021E0841766
S1130410950709F020E02E2B332331F0222321F01D
S113042071957A830E94C70428814F2D50E04F5F55
S11304305F4F6A8130E091E02417350709F090E0BE
S113044081E016160CF080E0392F382389814E2D77
S113045050E04F5F5F4F71E08E1170E090E021E05B
S11304608417950709F020E0272B332331F022234A
S113047021F061956A830E94C704DF91CF911F9197
S11304800F91FF90EF90089587B187B987B187B92D
S113049087B187B987B187B988B1886088B988B1CD
S11304A0846088B988B1826088B988B1816088B96C
S11304B084B1806284B90895FC01339903C081E05A
S11304C0818301C01182329903C081E0808301C01D
S11304D01082319903C081E0868301C0168230996D
S11304E003C081E08583089515820895FC0181810C
S11304F0882329F08081882311F01182108286815B
S1130500882329F08581882311F016821582808141
S1130510882321F08381823008F410828581882326
S113052021F08085823008F415828181882321F0AE
S11305308381833008F011828681882321F08085AD
S1130540833008F016820895FC018081882319F015
S11305508381815083838181882319F083818F5F14
S113056083838581882319F08085815080878681E3
S1130570882319F080858F5F8087089584EA8093AB
S1130580BC008091BC008823E4F78EE48093BB0018
S113059084E88093BC008091BC008823E4F708952C
S11305A084E98093BC008FE891E00197F1F700C0E3
S11305B000000895CF93C82F87E20E94BE02C8604E
S11305C0C093BB0084E88093BC008091BC00882366
S11305D0E4F70E94D002CF910895CF93C82F84608E
S11305E00E94DA0285E08A95F1F700008C2F8B7F58
S11305F00E94DA0287EC90E00197F1F700C0000056
S1130600CF910895CF93C82F0E94DA028C2F0E94B5
S1130610ED02CF910895CF93C82F807F0E940203EB
S11306208C2F8295807F0E9402038FE99FE00197BF
S1130630F1F700C00000CF910895CF93C82F807FB9
S113064081600E94020320E1C29FC00111248160E5
S11306500E9402038FE99FE00197F1F700C00000B8
S1130660CF910895FF920F931F93CF93DF93F82EAA
S11306708B01C0E0D0E011C08F2D8770880F880FE8
S1130680880F8C0F80640E940B03F801EC0FFD1F90
S113069080818F710E941D032196C830D10564F3B7
S11306A0DF91CF911F910F91FF90089587B187B982
S11306B087B187B988B1806188B988B1806288B907
S11306C088E48093B8001092B90084E08093BC0061
S11306D088E00E94DA0280E00E9402038FE496E43C
S11306E00197F1F700C0000083E00E9402038FE449
S11306F096E40197F1F700C0000083E00E94020332
S113070087E592E00197F1F700C0000082E00E94C3
S1130710020388E20E940B038CE00E940B0360E159
S113072071E084E090E00E94320368E071E082E0CE
S113073090E00E94320360E071E083E090E00E9468
S1130740320381E00E940B0382E00E940B0386E0E7
S11307500E940B038CE00E940B0308959FEF980FF7
S1130760633039F0643041F0623041F49FE3980F14
S113077005C093E1980F02C093E5980F892F806814
S11307800E940B030895CF93DF93CDB7DEB72E9766
S11307900FB6F894DEBF0FBECDBFF894CE0101961C
S11307A00E94440201E021E042E06AE0CE010B969F
S11307B00E948B010E945603CE0101960E94B20052
S11307C0CE0101960E945C02CE0101960E9476023F
S11307D0CE0101960E94A4028E01055F1F4F298558
S11307E048856C818B810E94E401C8010E94D40178
S11307F0B801CE0101960E940901B801CE0101960B
S11308000E9456012FEF83EC99E0215080409040E4
S1130810E1F700C00000D4CF1F920F920FB60F92E1
S113082011242F933F934F935F936F937F938F93F1
S11308309F93AF93BF93EF93FF930E947900FF912F
S1130840EF91BF91AF919F918F917F916F915F9144
S11308504F913F912F910F900FBE0F901F901895BD
S1130860F89484B1826084B9E0E8F0E080EC80839D
S113087081E08093810080E88093820080E480831B
S1130880209184008091850090E0982F8827820F22
S1130890911D20911C0130911D01820F931F8093A3
S11308A088009093890010921E0182E080936F006B
S11308B086BB78940895CF92DF92EF92FF92CF9304
S11308C0DF93EB016C01990FEE08FF0860E271EA17
S11308D087E090E0A70196010E94CE04225E3F4F7C
S11308E030931B0120931A011092200110921F01D2
S11308F010921E01DE01A70196010E94ED0428EE6C
S113090033E040E050E00E94CE043093180120937D
S113091019010E943004DF91CF91FF90EF90DF9096
S1130920CF90089568EE73E080E991E00E945B0443
S11309302FEF89E698E1215080409040E1F700C014
S1130940000068EE73E088EB91E00E945B042FEFF7
S113095089E698E1215080409040E1F700C0000012
S113096068EE73E08CE791E00E945B042FEF89E668
S113097098E1215080409040E1F700C000000895C4
S113098064EF71E088E790E00E945B04089564EFEF
S113099071E080EF90E00E945B040895052E97FBC0
S11309A01EF400940E94E50457FD07D00E94F5044C
S11309B007FC03D04EF40C94E50450954095309513
S11309C021953F4F4F4F5F4F0895909580957095B7
S11309D061957F4F8F4F9F4F0895B7FF0C94170574
S11309E00E941705821B930B0895A1E21A2EAA1BDD
S11309F0BB1BFD010DC0AA1FBB1FEE1FFF1FA217CB
S1130A00B307E407F50720F0A21BB30BE40BF50BC7
S1130A10661F771F881F991F1A9469F76095709550
S1130A20809590959B01AC01BD01CF0108950E9472
S1130A302205A59F900DB49F900DA49F800D911D3C
S1130A4011240895A29FB001B39FC001A39F700D0C
S1130A50811D1124911DB29F700D811D1124911DC2
S1090A600895F894FFCF95
S1130A6601010101010101011010101010101010F4
S1110A76000E1F1F1F0E00007878F803780092
S9030000FC
