:100000000C945A000C9477000C9477000C947700B1
:100010000C9477000C9477000C9477000C94770084
:100020000C9477000C9477000C9477000C94DB0010
:100030000C9477000C9477000C9477000C94770064
:100040000C9477000C9477000C9477000C94770054
:100050000C9477000C9477000C9477000C94770044
:100060000C9477000C9477000C9477000C94770034
:100070000C9477000C9477000C9477000C94770024
:100080000C9477000C9477000C9477000C94770014
:100090000C9477000C9477000C9477000C94770004
:1000A0000C9477000C9477000C9477000C947700F4
:1000B0000C94770011241FBECFEFD8E0DEBFCDBF78
:1000C00011E0A0E0B1E0EEE1F2E002C005900D9297
:1000D000A430B107D9F721E0A4E0B1E001C01D923E
:1000E000A730B207E1F70E94FF000C940D010C94B9
:1000F0000000F8940FEF04B900EC0093800001E0D9
:100100000093810000E80093820000E400938000E7
:10011000209103011091020100918400100F0091C1
:100120008500201F209389001093880030E002E0B2
:1001300000936F0006BF789408953091040130FD5C
:1001400006C0109102012091030131E020C01091FE
:1001500002012091030130E0409101015091000122
:10016000609106017091050181E0680F731F609333
:10017000060170930501461757074CF4F89400E008
:1001800000936F0006BF00E0009380007894009118
:100190008800100F00918900201F20938900109380
:1001A000880030FD00C0309304010895359902C0E5
:1001B00080E285B908951F920F920FB60F92112415
:1001C0002F933F934F935F936F937F938F939F935F
:1001D000AF93BF93EF93FF930E949D00FF91EF9128
:1001E000BF91AF919F918F917F916F915F914F914F
:1001F0003F912F910F900FBE0F901F901895F8947C
:100200000E94D60087B187B988B1806288B984B16D
:0E021000806284B90E94D600FDCFF894FFCF23
:04021E007878F803F1
:00000001FF
