S00C0000506F6E672E7372656384
S11300000C945A000C9477000C9477000C947700AD
S11300100C9477000C9477000C9477000C94770080
S11300200C9477000C9477000C9477000C940D01D9
S11300300C9477000C9477000C9477000C94770060
S11300400C9477000C9477000C9477000C94770050
S11300500C9477000C9477000C9477000C94770040
S11300600C9477000C9477000C9477000C94770030
S11300700C9477000C9477000C9477000C94770020
S11300800C9477000C9477000C9477000C94770010
S11300900C9477000C9477000C9477000C94770000
S11300A00C9477000C9477000C9477000C947700F0
S11300B00C94770011241FBECFEFD8E0DEBFCDBF74
S11300C011E0A0E0B1E0E6E1F4E002C005900D9299
S11300D0A430B107D9F721E0A4E0B1E001C01D923A
S11300E0A730B207E1F70E9431010C9409020C9485
S11300F00000F8940FEF04B900EC0093800001E0D5
S11301000093810000E80093820000E400938000E3
S1130110209103011091020100918400100F0091BD
S11301208500201F209389001093880030E002E0AE
S113013000936F0006BF789408953091040130FD58
S113014006C0109102012091030131E020C01091FA
S113015002012091030130E040910101509100011E
S1130160609106017091050181E0680F731F60932F
S1130170060170930501461757074CF4F89400E004
S113018000936F0006BF00E0009380007894009114
S11301908800100F00918900201F2093890010937C
S11301A0880030FD00C0309304010895CF92DF929F
S11301B0EF92FF92CF93DF93EB016C01990FEE085E
S11301C0FF0860E271EA87E090E0A70196010E94CF
S11301D0A601285E3F4F3093030120930201109241
S11301E006011092050110920401DE01A701960197
S11301F00E94C50128EE33E040E050E00E94A601D1
S113020030930001209301010E947900DF91CF9186
S1130210FF90EF90DF90CF9008951F920F920FB64A
S11302200F9211242F933F934F935F936F937F9378
S11302308F939F93AF93BF93EF93FF930E949D007F
S1130240FF91EF91BF91AF919F918F917F916F91AA
S11302505F914F913F912F910F900FBE0F901F9080
S11302601895F89460EA7FE085E091E00E94D6005A
S11302702FEF33E284EF215030408040E1F700C09B
S1130280000060EA7FE085E091E00E94D6009FEFE5
S113029023E234EF915020403040E1F700C00000E9
S11302A060EA7FE088E891E00E94D6008FEF93E255
S11302B024EF815090402040E1F700C0000060EA44
S11302C07FE088E891E00E94D6003FEF83E294EF5C
S11302D0315080409040E1F700C0000060EA7FE0C8
S11302E088EB91E00E94D6002FEF33E284EF215097
S11302F030408040E1F700C0000060EA7FE088EB16
S113030091E00E94D6009FEF23E234EF9150204009
S11303103040E1F700C0000060EA7FE088E891E047
S11303200E94D6008FEF93E224EF8150904020404A
S1130330E1F700C000003AEA8AE09BE822E031508D
S1130340804090402040D9F700008CCF052E97FBC9
S11303501EF400940E94BD0157FD07D00E94CD01F8
S113036007FC03D04EF40C94BD0150954095309594
S113037021953F4F4F4F5F4F08959095809570950D
S113038061957F4F8F4F9F4F0895B7FF0C94EF01F6
S11303900E94EF01821B930B0895A1E21A2EAA1B5F
S11303A0BB1BFD010DC0AA1FBB1FEE1FFF1FA21721
S11303B0B307E407F50720F0A21BB30BE40BF50B1E
S11303C0661F771F881F991F1A9469F760957095A7
S11303D0809590959B01AC01BD01CF0108950E94C9
S11303E0FA01A59F900DB49F900DA49F800D911DBF
S11303F011240895A29FB001B39FC001A39F700D63
S1130400811D1124911DB29F700D811D1124911D18
S10904100895F894FFCFEB
S10704167878F803F3
S9030000FC
