S00C0000506F6E672E7372656384
S11300000C945A000C9477000C9477000C947700AD
S11300100C9477000C9477000C9477000C94770080
S11300200C9477000C9477000C9477000C94DA010C
S11300300C9477000C9477000C9477000C94770060
S11300400C9477000C9477000C9477000C94770050
S11300500C9477000C9477000C9477000C94770040
S11300600C9477000C9477000C9477000C94770030
S11300700C9477000C9477000C9477000C94770020
S11300800C9477000C9477000C9477000C94770010
S11300900C9477000C9477000C9477000C94770000
S11300A00C9477000C9477000C9477000C947700F0
S11300B00C94770011241FBECFEFD8E0DEBFCDBF74
S11300C011E0A0E0B1E0E0E0F4E002C005900D92A0
S11300D0A430B107D9F721E0A4E0B1E001C01D923A
S11300E0A730B207E1F70E94C4010C94FE010C94FE
S11300F000003091040130FD06C09091020120916E
S1130100030131E020C0909102012091030130E00D
S11301104091010150910001609106017091050127
S113012081E0680F731F6093060170930501461701
S113013057074CF4F894A0E0A0936F00A6BFA0E08A
S1130140A09380007894A09188009A0FA0918900D0
S11301502A1F209389009093880030FD00C03093BB
S113016004010895FC01118210821382128287B166
S113017087B987B187B987B187B987B187B988B19A
S1130180886088B988B1846088B988B1826088B988
S113019088B1816088B984B1806284B90895FC0112
S11301A0339903C081E0818301C01182329903C075
S11301B081E0808301C01082319903C081E0838390
S11301C001C01382309903C081E0828308951282B2
S11301D00895FC018181882329F08081882311F00E
S11301E0118210828381882329F08281882311F06F
S11301F0138212828181811181E09081911181E0C9
S11302009381911181E09281911181E0882331F0F1
S113021080E285B98FE40E946901089515B80895B4
S113022084EA8093BC008091BC008823E4F78EE4C8
S11302308093BB0084E88093BC008091BC00882339
S1130240E4F7089584E98093BC008FE891E0019776
S1130250F1F700C000000895CF93C82F87E20E94F1
S11302601001C860C093BB0084E88093BC008091F7
S1130270BC008823E4F70E942201CF910895CF9314
S1130280C82F84600E942C0185E08A95F1F7000054
S11302908C2F8B7F0E942C0187EC90E00197F1F763
S11302A000C00000CF910895CF93C82F0E942C0165
S11302B08C2F0E943F01CF910895CF93C82F807F48
S11302C00E9454018C2F8295807F0E945401CF910B
S11302D00895CF93C82F807F81600E94540120E14C
S11302E0C29FC001112481600E945401CF910895DE
S11302F087B187B987B187B988B1806188B988B176
S1130300806288B988E48093B8001092B90084E0D0
S11303108093BC0088E00E942C0180E00E9454017C
S11303208FE496E40197F1F700C0000083E00E9497
S113033054018FE496E40197F1F700C0000083E0D4
S11303400E94540187E592E00197F1F700C0000094
S113035082E00E94540188E30E945D0184E30E94CC
S11303605D0188E00E945D018FE00E945D0182E0F2
S11303700E945D0186E00E945D0184E10E945D01AE
S113038081E40E9469010895CF93DF9300D000D0E7
S1130390CDB7DEB7F894CE0101960E94B2000E9458
S11303A07801CE0101960E94CF00CE0101960E94F1
S11303B0E900F7CF1F920F920FB60F9211242F93DB
S11303C03F934F935F936F937F938F939F93AF93D9
S11303D0BF93EF93FF930E947900FF91EF91BF9138
S11303E0AF919F918F917F916F915F914F913F91C9
S11303F02F910F900FBE0F901F901895F894FFCF78
S10704007878F80309
S9030000FC
