:100000000C945A000C9477000C9477000C947700B1
:100010000C9477000C9477000C9477000C94770084
:100020000C9477000C9477000C9477000C942102C8
:100030000C9477000C9477000C9477000C94770064
:100040000C9477000C9477000C9477000C94770054
:100050000C9477000C9477000C9477000C94770044
:100060000C9477000C9477000C9477000C94770034
:100070000C9477000C9477000C9477000C94770024
:100080000C9477000C9477000C9477000C94770014
:100090000C9477000C9477000C9477000C94770004
:1000A0000C9477000C9477000C9477000C947700F4
:1000B0000C94770011241FBECFEFD8E0DEBFCDBF78
:1000C00011E0A0E0B1E0EEE8F4E002C005900D928E
:1000D000AC31B107D9F721E0ACE1B1E001C01D922C
:1000E000AF31B207E1F70E940B020C9445020C9469
:1000F000000030911C0130FD06C090911A01209142
:100100001B0131E020C090911A0120911B0130E0C9
:10011000409119015091180160911E0170911D01CB
:1001200081E0680F731F60931E0170931D014617D5
:1001300057074CF4F894A0E0A0936F00A6BFA0E08E
:10014000A09380007894A09188009A0FA0918900D4
:100150002A1F209389009093880030FD00C03093BF
:100160001C010895FC01118210821382128287B152
:1001700087B987B187B987B187B987B187B988B19E
:10018000886088B988B1846088B988B1826088B98C
:1001900088B1816088B984B1806284B90895FC0116
:1001A000339903C081E0818301C01182329903C079
:1001B00081E0808301C01082319903C081E0838394
:1001C00001C01382309903C081E0828308951282B6
:1001D0000895FC018181882329F08081882311F012
:1001E000118210828381882329F08281882311F073
:1001F000138212828181811181E09081911181E0CD
:100200009381911181E09281911181E0882331F0F5
:1002100080E285B98FE40E947201089515B80895AF
:1002200084EA8093BC008091BC008823E4F78EE4CC
:100230008093BB0084E88093BC008091BC0088233D
:10024000E4F7089584E98093BC008FE891E001977A
:10025000F1F700C000000895CF93C82F87E20E94F5
:100260001001C860C093BB0084E88093BC008091FB
:10027000BC008823E4F70E942201CF910895CF9318
:10028000C82F84600E942C0185E08A95F1F7000058
:100290008C2F8B7F0E942C0187EC90E00197F1F767
:1002A00000C00000CF910895CF93C82F0E942C0169
:1002B0008C2F0E943F01CF910895CF93C82F807F4C
:1002C0000E9454018C2F8295807F0E9454012FEF51
:1002D00080E792E0215080409040E1F700C00000AC
:1002E000CF910895CF93C82F807F81600E945401E1
:1002F00020E1C29FC001112481600E9454018FEF50
:1003000090E722E0815090402040E1F700C00000DB
:10031000CF910895FF920F931F93CF93DF93F82E01
:100320008B01C0E0D0E010C08F2D8770880F880F40
:10033000880F8C0F80640E945D01F801EC0FFD1F97
:1003400080810E9472012196C830D1056CF3DF9143
:10035000CF911F910F91FF90089587B187B987B111
:1003600087B988B1806188B988B1806288B988E42A
:100370008093B8001092B90084E08093BC0088E0BC
:100380000E942C0180E00E9454018FE496E40197C2
:10039000F1F700C0000083E00E9454018FE496E46E
:1003A0000197F1F700C0000083E00E94540187E547
:1003B00092E00197F1F700C0000082E00E94540132
:1003C00088E30E945D0184E30E945D0188E00E9451
:1003D0005D018FE00E945D0182E00E945D0186E088
:1003E0000E945D0184E10E945D0160E171E081E0B5
:1003F00090E00E948A0168E071E082E090E00E9453
:100400008A0160E071E083E090E00E948A0181E06F
:100410000E945D010895CF93DF9300D000D0CDB747
:10042000DEB7F894CE0101960E94B2000E94AD01A1
:10043000CE0101960E94CF00CE0101960E94E900F4
:10044000F7CF1F920F920FB60F9211242F933F9365
:100450004F935F936F937F938F939F93AF93BF93CC
:10046000EF93FF930E947900FF91EF91BF91AF91BD
:100470009F918F917F916F915F914F913F912F91BC
:0E0480000F900FBE0F901F901895F894FFCFAD
:10048E0001010101010101011010101010101010D6
:0C049E00000E1F1F1F0E00007878F803EE
:00000001FF
