S00C0000506F6E672E7372656384
S11300000C945A000C9477000C9477000C947700AD
S11300100C9477000C9477000C9477000C94770080
S11300200C9477000C9477000C9477000C94900651
S11300300C9477000C9477000C94F8050C947700DA
S11300400C9477000C9477000C9477000C94770050
S11300500C9477000C9477000C9477000C94770040
S11300600C9477000C9477000C9477000C94770030
S11300700C9477000C9477000C9477000C94770020
S11300800C9477000C9477000C9477000C94770010
S11300900C9477000C9477000C9477000C94770000
S11300A00C9477000C9477000C9477000C947700F0
S11300B00C94770011241FBECFEFD8E0DEBFCDBF74
S11300C011E0A0E0B1E0E4E8F4E102C005900D9293
S11300D0AE31B107D9F721E0AEE1B1E001C01D9224
S11300E0A932B207E1F70E941D060C94400A0C9451
S11300F000003091260130FD06C090911A01209134
S11301001B0131E020C090911A0120911B0130E0C5
S113011040911901509118016091280170912701B3
S113012081E0680F731F60932801709327014617BD
S113013057074CF4F894A0E0A0936F00A6BFA0E08A
S1130140A09380007894A09188009A0FA0918900D0
S11301502A1F209389009093880030FD00C03093BB
S113016026010895FC0111821082148613861282DE
S113017013821482158280E090E0A0E0B0E48683CC
S11301809783A087B18740E050E068E871E4458731
S113019056876787708B818B928BA38BB48B128667
S11301A0158A0895CF93DF93C82FD62F61E082E09C
S11301B08D0F0E949E059DECC99F912D112496954B
S11301C096959695990F892F880F880F980F8C2FE5
S11301D0891B805D0E940D05CA3050F161E081E009
S11301E08D0F0E949E0589E2C89F812D112482955E
S11301F08F709C2F24E6829F90191124892F9DECE7
S1130200899F812D1124869586958695805D0E940F
S11302100D05C43668F061E08D2F0E949E0589E2C9
S1130220C89F812D112482958F70805D0E940D05D9
S1130230DF91CF9108958F929F92AF92BF92CF9208
S1130240DF92EF92FF920F931F93CF93DF93EC0112
S11302508B0181E00E94FB048FED9EE20197F1F790
S113026000C0000082E00E94FB048A8563E070E025
S113027090E00E94D2008D8960E170E090E00E94DD
S1130280D200F80164817581868197810E9490096A
S11302904B015C01F80160817181828193810E942C
S11302A090096B017C01C501B4010E943D08162F21
S11302B0C701B6010E943D08862F612F0E949E054A
S11302C08FE60E940D056E817F81888599850E9445
S11302D090096B017C016A817B818C819D8120E086
S11302E030E040E050E40E9453070E943608162F85
S11302F0C701B6010E943D08812F0E949E058CE72C
S11303000E940D056E817F818885998520E030E00B
S113031040E85FE30E9453070E9490096B017C014F
S11303206A817B818C819D8120E030E040E050E453
S11303300E9453070E943608162FC701B6010E9477
S11303403D08812F0E949E058CE70E940D05698956
S11303507A898B899C890E9490096B017C016D8547
S11303607E858F85988920E030E040E050E40E944B
S113037053070E943608162FC701B6010E943D0894
S1130380812F0E949E058CE70E940D0569897A8958
S11303908B899C8920E030E040E85FE30E945307AA
S11303A00E9490096B017C016D857E858F859889FB
S11303B020E030E040E050E40E9453070E943608F9
S11303C0C62FC701B6010E943D088C2F0E949E05CE
S11303D08CE70E940D05DF91CF911F910F91FF9043
S11303E0EF90DF90CF90BF90AF909F908F90089543
S11303F0EF92FF920F931F93CF93DF938C01EB0146
S11304007A01688179818A819B8120E030E040E82B
S11304105FE30E94BF0718161CF18885882304F542
S1130420F80185898F5F858B20E030E040E251E45C
S1130430688179818A819B810E94530768837983CB
S11304408A839B830E941607FFEF2BE782E9F15012
S113045020408040E1F700C0000081E0F701808384
S1130460688179818A819B8120E030E040EA51E40F
S11304700E941E0988231CF18885181604F5F801CA
S113048082858F5F828720E030E040E251E468811A
S113049079818A819B810E945207688379838A8348
S11304A09B830E941607FFEF21E18AE7F150204069
S11304B08040E1F700C0000081E0F7018083DF9114
S11304C0CF911F910F91FF90EF900895FF920F939A
S11304D01F93CF93DF93EC01142FF22E70E080E092
S11304E090E00E946C08688379838A839B83612FE0
S11304F070E080E090E00E946C086C837D838E83C2
S11305009F83F8860987DF91CF911F910F91FF9008
S11305100895CF93DF93EC016C817D818E819F815F
S113052020E030E040E85FE30E94BF0718163CF08B
S11305308985882324F4819589870E9444076C81E6
S11305407D818E819F8120E030E040E850E40E946C
S11305501E0988233CF08985181624F4819589871F
S11305600E944407DF91CF910895CF92DF92EF92DA
S1130570FF92CF93DF93EC016A017B010E94890211
S11305806885062E000C770B880B990B0E946E0869
S1130590A70196010E94230920E030E040EA50E4DC
S11305A00E9423099B01AC01688179818A819B8126
S11305B00E945307688379838A839B836985062E07
S11305C0000C770B880B990B0E946E08A70196010B
S11305D00E94230920E030E040EA50E40E9423090D
S11305E09B01AC016C817D818E819F810E945307A8
S11305F06C837D838E839F83DF91CF91FF90EF90F7
S1130600DF90CF9008954F925F926F927F928F9276
S11306109F92AF92BF92CF92DF92EF92FF920F938D
S11306201F93CF93DF93CDB7DEB728970FB6F89417
S1130630DEBF0FBECDBF2D833E834F835887E98233
S1130640FA820B831C83F4014080518062807380A2
S113065020E030E040E850E40E9453079B01AC01E5
S1130660C301B2010E94BF0718169CF1F401108562
S113067011237CF564817581868197810E9490099C
S11306802B013C016D817E818F8198850E949009A8
S11306909B01AC01C301B2010E941E098823CCF066
S11306A020E030E040E85FE36D817E818F819885B2
S11306B00E9453070E9490099B01AC01C301B2013F
S11306C00E94BF0718162CF01195F40110870E94A0
S11306D04B07F401408051806280738020E030E059
S11306E040E85FE369817A818B819C810E94530792
S11306F09B01AC01C301B2010E941E0988237CF155
S1130700F401108511165CF56481758186819781E9
S11307100E9490092B013C01C601B5010E94900979
S11307209B01AC01C301B2010E941E098823BCF0E5
S113073020E030E040E85FE3C601B5010E945307C2
S11307400E9490099B01AC01C301B2010E94BF0742
S113075018162CF01195F40110870E944B07289667
S11307600FB6F894DEBF0FBECDBFDF91CF911F91BE
S11307700F91FF90EF90DF90CF90BF90AF909F903C
S11307808F907F906F905F904F90089587B187B955
S113079087B187B987B187B987B187B988B18860CC
S11307A088B988B1846088B988B1826088B988B111
S11307B0816088B984B1806284B90895FC01339959
S11307C003C081E0818301C01182329903C081E0BA
S11307D0808301C01082319903C081E0848701C005
S11307E01486309903C081E08387089513860895A1
S11307F0CF93DF93EC018981882329F088818823B2
S113080011F0198218828C85882329F08B8588231E
S113081011F01C861B868881882351F06E817F81AC
S1130820888599850E943608623071050CF4188217
S11308308B85882351F069897A898B899C890E94E8
S11308403608623071050CF41B868981882351F0C7
S11308506E817F81888599850E9436086330710591
S11308600CF019828C85882351F069897A898B89E7
S11308709C890E943608633071050CF01C86DF9158
S1130880CF910895CF92DF92EF92FF92CF93DF93AF
S1130890EC016A017B0188818823A1F020E030E02B
S11308A040EA50E4C701B6010E9423099B01AC0150
S11308B06E817F81888599850E9452076E837F832C
S11308C08887998789818823A1F020E030E040EA75
S11308D050E4C701B6010E9423099B01AC016E815B
S11308E07F81888599850E9453076E837F838887DB
S11308F099878B858823A1F020E030E040EA50E41A
S1130900C701B6010E9423099B01AC0169897A8958
S11309108B899C890E945207698B7A8B8B8B9C8B69
S11309208C858823A1F020E030E040EA50E4C70140
S1130930B6010E9423099B01AC0169897A898B89DC
S11309409C890E945307698B7A8B8B8B9C8BDF91DC
S1130950CF91FF90EF90DF90CF90089584EA809339
S1130960BC008091BC008823E4F78EE48093BB0034
S113097084E88093BC008091BC008823E4F7089548
S113098084E98093BC008FE891E00197F1F700C0FF
S113099000000895CF93C82F87E20E94AE04C86078
S11309A0C093BB0084E88093BC008091BC00882382
S11309B0E4F70E94C004CF910895CF93C82F8460B8
S11309C00E94CA0485E08A95F1F700008C2F8B7F82
S11309D00E94CA0487EC90E00197F1F700C0000080
S11309E0CF910895CF93C82F0E94CA048C2F0E94E0
S11309F0DD04CF910895CF93C82F807F0E94F20425
S1130A008C2F8295807F0E94F2048FE99FE00197EA
S1130A10F1F700C00000CF910895CF93C82F807FD5
S1130A2081600E94F20420E1C29FC0011124816010
S1130A300E94F2048FE99FE00197F1F700C00000E3
S1130A40CF910895FF920F931F93CF93DF93F82EC6
S1130A508B01C0E0D0E011C08F2D8770880F880F04
S1130A60880F8C0F80640E94FB04F801EC0FFD1FBB
S1130A7080818F710E940D052196C830D10564F3E1
S1130A80DF91CF911F910F91FF90089587B187B99E
S1130A9087B187B988B1806188B988B1806288B923
S1130AA088E48093B8001092B90084E08093BC007D
S1130AB088E00E94CA0480E00E94F2048FE496E475
S1130AC00197F1F700C0000083E00E94F2048FE474
S1130AD096E40197F1F700C0000083E00E94F2045D
S1130AE087E592E00197F1F700C0000082E00E94E0
S1130AF0F20488E20E94FB048CE00E94FB0460E1A3
S1130B0071E084E090E00E94220568E071E082E0F8
S1130B1090E00E94220560E071E083E090E00E9492
S1130B20220581E00E94FB0482E00E94FB0486E02F
S1130B300E94FB048CE00E94FB0408959FEF980F31
S1130B40633039F0643041F0623041F49FE3980F30
S1130B5005C093E1980F02C093E5980F892F806830
S1130B600E94FB040895F89460912201709123017E
S1130B70809124019091250178940895CF92DF9279
S1130B80EF92FF920F931F930E94B3058B019C0178
S1130B9040911E0150911F0160912001709121012B
S1130BA068017901C41AD50AE60AF70AC701B60131
S1130BB000931E0110931F01209320013093210103
S1130BC00E946C081F910F91FF90EF90DF90CF90DF
S1130BD0089584B5826084BD85B5836085BD89EF41
S1130BE087BDEEE6F0E0808182608083789408958A
S1130BF01F920F920FB60F9211248F939F93AF936E
S1130C00BF938091220190912301A0912401B0917E
S1130C1025010196A11DB11D80932201909323010A
S1130C20A0932401B0932501BF91AF919F918F911F
S1130C300F900FBE0F901F901895CF93DF93CDB7F1
S1130C40DEB7A1970FB6F894DEBF0FBECDBFF89400
S1130C500E94E9050E94BE0520E030E04AE754E422
S1130C600E94C4072B013C01CE0101960E94C603D9
S1130C7001E021E042E06AE0CE0147960E9466026C
S1130C800E944605CE0101960E94B200CE01019653
S1130C900E94DE03CE0101960E94F803B301A20173
S1130CA0CE0101960E944204AA88BB88CC88DD88C4
S1130CB0EE84FF84088919892F81388549855A85EE
S1130CC06B817C818D819E81FE0177964F010E940C
S1130CD00303B301A201C4010E94B50219A2AE012B
S1130CE04F5D5F4FB401CE0101960E94F80189A1C6
S1130CF0813021F40E94BE050E94BE05BE01695EDA
S1130D007F4FCE0101960E941B010E94BE0520E088
S1130D1030E04AE754E40E94C4072B013C01B6CFFB
S1130D201F920F920FB60F9211242F933F934F935C
S1130D305F936F937F938F939F93AF93BF93EF933F
S1130D40FF930E947900FF91EF91BF91AF919F9122
S1130D508F917F916F915F914F913F912F910F9060
S1130D600FBE0F901F901895F89484B1826084B9D7
S1130D70E0E8F0E080EC808381E08093810080E80B
S1130D808093820080E48083209184008091850098
S1130D9090E0982F8827820F911D20911C0130919B
S1130DA01D01820F931F80938800909389001092F5
S1130DB0260182E080936F0086BB78940895CF92D9
S1130DC0DF92EF92FF92CF93DF93EB016C01990FC7
S1130DD0EE08FF0860E271EA87E090E0A70196015F
S1130DE00E94DD09225E3F4F30931B0120931A01BC
S1130DF0109228011092270110922601DE01A7010A
S1130E0096010E94FC0928EE33E040E050E00E9485
S1130E10DD0930931801209319010E94B406DF9173
S1130E20CF91FF90EF90DF90CF90089568EE73E03C
S1130E3080E991E00E94DF062FEF89E698E12150D6
S1130E4080409040E1F700C0000068EE73E088EB5A
S1130E5091E00E94DF062FEF89E698E1215080405F
S1130E609040E1F700C0000068EE73E08CE791E089
S1130E700E94DF062FEF89E698E1215080409040E0
S1130E80E1F700C00000089564EF71E088E790E0A6
S1130E900E94DF06089564EF71E080EF90E00E9405
S1130EA0DF0608955058BB27AA270E946A070C94AE
S1130EB0E4080E94D60838F00E94DD0820F039F4D6
S1130EC09F3F19F426F40C94D3080EF4E095E7FB45
S1130ED00C94CD08E92F0E94F50858F3BA1762075D
S1130EE073078407950720F079F4A6F50C94170985
S1130EF00EF4E0950B2EBA2FA02D0B01B901900131
S1130F000C01CA01A0011124FF27591B99F0593F74
S1130F1050F4503E68F11A16F040A22F232F342FBC
S1130F204427585FF3CF469537952795A795F0400A
S1130F305395C9F77EF41F16BA0B620B730B840B1F
S1130F40BAF09150A1F0FF0FBB1F661F771F881FD7
S1130F50C2F70EC0BA0F621F731F841F48F487952F
S1130F6077956795B795F7959E3F08F0B0CF939521
S1130F70880F08F09927EE0F9795879508950E949A
S1130F80A90808F481E008950E94D8070C94E408A5
S1130F900E94DD0858F00E94D60840F029F45F3F13
S1130FA029F00C94CD0851110C9418090C94D30811
S1130FB00E94F50868F39923B1F3552391F3951B27
S1130FC0550BBB27AA2762177307840738F09F5F66
S1130FD05F4F220F331F441FAA1FA9F335D00E2ED3
S1130FE03AF0E0E832D091505040E695001CCAF740
S1130FF02BD0FE2F29D0660F771F881FBB1F261703
S113100037074807AB07B0E809F0BB0B802DBF01D9
S1131010FF2793585F4F3AF09E3F510578F00C94A8
S1131020CD080C9418095F3FE4F3983ED4F38695F9
S113103077956795B795F7959F5FC9F7880F911DC9
S11310409695879597F90895E1E0660F771F881FB5
S1131050BB1F621773078407BA0720F0621B730B68
S1131060840BBA0BEE1F88F7E09508950E943D08A3
S11310706894B1110C94180908950E94FD0888F031
S11310809F5798F0B92F9927B751B0F0E1F0660F48
S1131090771F881F991F1AF0BA95C9F714C0B13089
S11310A091F00E941709B1E008950C941709672F75
S11310B0782F8827B85F39F0B93FCCF386957795B8
S11310C06795B395D9F73EF49095809570956195A1
S11310D07F4F8F4F9F4F0895E89409C097FB3EF4CC
S11310E090958095709561957F4F8F4F9F4F992371
S11310F0A9F0F92F96E9BB279395F69587957795EF
S11311006795B795F111F8CFFAF4BB0F11F460FFAE
S11311101BC06F5F7F4F8F4F9F4F16C0882311F006
S113112096E911C0772321F09EE8872F762F05C01A
S1131130662371F096E8862F70E060E02AF09A95B5
S1131140660F771F881FDAF7880F9695879597F9AA
S11311500895990F0008550FAA0BE0E8FEEF161644
S11311601706E807F907C0F012161306E407F50797
S113117098F0621B730B840B950B39F40A2661F00B
S1131180232B242B252B21F408950A2609F4A140AE
S1131190A6958FEF811D811D089597F99F6780E8BB
S11311A070E060E008959FEF80EC089500240A94B5
S11311B01616170618060906089500240A9412162E
S11311C01306140605060895092E0394000C11F461
S11311D0882352F0BB0F40F4BF2B11F460FF04C00E
S11311E06F5F7F4F8F4F9F4F089557FD9058440F67
S11311F0551F59F05F3F71F04795880F97FB991F72
S113120061F09F3F79F0879508951216130614062E
S1131210551FF2CF4695F1DF08C0161617061806BB
S1131220991FF1CF86957105610508940895E89496
S1131230BB2766277727CB0197F908950E94A90851
S113124008F48FEF08950E9436090C94E4080E9474
S1131250D60838F00E94DD0820F0952311F00C9494
S1131260CD080C94D30811240C9418090E94F50895
S113127070F3959FC1F3950F50E0551F629FF001E5
S1131280729FBB27F00DB11D639FAA27F00DB11DFE
S1131290AA1F649F6627B00DA11D661F829F222787
S11312A0B00DA11D621F739FB00DA11D621F839F0E
S11312B0A00D611D221F749F3327A00D611D231FE4
S11312C0849F600D211D822F762F6A2F11249F5732
S11312D050409AF0F1F088234AF0EE0FFF1FBB1F35
S11312E0661F771F881F91505040A9F79E3F5105F4
S11312F080F00C94CD080C9418095F3FE4F3983EF9
S1131300D4F3869577956795B795F795E7959F5F9D
S1131310C1F7FE2B880F911D9695879597F908952F
S11313200E94FD08E8F09E37E8F09639B8F49E383C
S113133048F4672F782F8827985FF9CF869577959B
S1131340679593959539D0F3B62FB1706B0F711DD6
S1131350811D20F487957795679593950C94B4092E
S11313600C94CF090C941809882371F4772321F085
S11313709850872B762F07C0662311F499270DC048
S11313809051862B70E060E02AF09A95660F771FE3
S1131390881FDAF7880F9695879597F908959F3FE8
S11313A031F0915020F4879577956795B795880F1C
S11313B0911D9695879597F90895052E97FB1EF430
S11313C000940E94F40957FD07D00E94040A07FC08
S11313D003D04EF40C94F409509540953095219522
S11313E03F4F4F4F5F4F089590958095709561954D
S11313F07F4F8F4F9F4F0895B7FF0C94260A0E948A
S1131400260A821B930B0895A1E21A2EAA1BBB1B6A
S1131410FD010DC0AA1FBB1FEE1FFF1FA217B307BC
S1131420E407F50720F0A21BB30BE40BF50B661FD2
S1131430771F881F991F1A9469F760957095809596
S113144090959B01AC01BD01CF0108950E94310A22
S1131450A59F900DB49F900DA49F800D911D112404
S11314600895A29FB001B39FC001A39F700D811D79
S11314701124911DB29F700D811D1124911D089599
S1071480F894FFCF0A
S113148401010101010101011010101010101010CC
S1111494000E1F1F1F0E00007878F80378006A
S9030000FC
