:100000000C945A000C9477000C9477000C947700B1
:100010000C9477000C9477000C9477000C94770084
:100020000C9477000C9477000C9477000C94680182
:100030000C9477000C9477000C9477000C94770064
:100040000C9477000C9477000C9477000C94770054
:100050000C9477000C9477000C9477000C94770044
:100060000C9477000C9477000C9477000C94770034
:100070000C9477000C9477000C9477000C94770024
:100080000C9477000C9477000C9477000C94770014
:100090000C9477000C9477000C9477000C94770004
:1000A0000C9477000C9477000C9477000C947700F4
:1000B0000C94770011241FBECFEFD8E0DEBFCDBF78
:1000C00011E0A0E0B1E0ECE1F3E002C005900D9298
:1000D000A430B107D9F721E0A4E0B1E001C01D923E
:1000E000A730B207E1F70E9452010C948C010C94E6
:1000F00000003091040130FD06C090910201209172
:10010000030131E020C0909102012091030130E011
:10011000409101015091000160910601709105012B
:1001200081E0680F731F6093060170930501461705
:1001300057074CF4F894A0E0A0936F00A6BFA0E08E
:10014000A09380007894A09188009A0FA0918900D4
:100150002A1F209389009093880030FD00C03093BF
:1001600004010895FC01118210821382128287B16A
:1001700087B987B187B987B187B987B187B988B19E
:10018000886088B988B1846088B988B1826088B98C
:1001900088B1816088B984B1806284B90895FC0116
:1001A000339903C081E0818301C01182329903C079
:1001B00081E0808301C01082319903C081E0838394
:1001C00001C01382309903C081E0828308951282B6
:1001D0000895FC018181882329F08081882311F012
:1001E000118210828381882329F08281882311F073
:1001F000138212828181811181E09081911181E0CD
:100200009381911181E09281911181E0882339F0ED
:1002100080E285B98EE090E00E942501089515B82E
:100220000895ECEBF0E080818460808388B1806188
:1002300088B988B1806288B98DEF8093B80081E079
:100240008093B90084E08083089594EA9093BC0081
:100250009091BC009923E4F79EE49093BB0094E84E
:100260009093BC009091BC009923E4F71092BB00DE
:1002700094E89093BC009091BC009923E4F780939C
:10028000BB0084E88093BC008091BC008823E4F725
:1002900084E98093BC008FE891E00197F1F700C0FA
:1002A00000000895CF93DF9300D000D0CDB7DEB724
:1002B000F894CE0101960E94B2000E941101CE0175
:1002C00001960E94CF00CE0101960E94E900F7CF6F
:1002D0001F920F920FB60F9211242F933F934F93BB
:1002E0005F936F937F938F939F93AF93BF93EF939E
:1002F000FF930E947900FF91EF91BF91AF919F9181
:100300008F917F916F915F914F913F912F910F90BE
:0C0310000FBE0F901F901895F894FFCFBF
:04031C007878F803F2
:00000001FF
