:100000000C945A000C9477000C9477000C947700B1
:100010000C9477000C9477000C9477000C94770084
:100020000C9477000C9477000C9477000C94B00239
:100030000C9477000C9477000C9477000C94770064
:100040000C9477000C9477000C9477000C94770054
:100050000C9477000C9477000C9477000C94770044
:100060000C9477000C9477000C9477000C94770034
:100070000C9477000C9477000C9477000C94770024
:100080000C9477000C9477000C9477000C94770014
:100090000C9477000C9477000C9477000C94770004
:1000A0000C9477000C9477000C9477000C947700F4
:1000B0000C94770011241FBECFEFD8E0DEBFCDBF78
:1000C00011E0A0E0B1E0ECEAF5E002C005900D928D
:1000D000AC31B107D9F721E0ACE1B1E001C01D922C
:1000E000AF31B207E1F70E9478020C94D4020C946D
:1000F000000030911C0130FD06C090911A01209142
:100100001B0131E020C090911A0120911B0130E0C9
:10011000409119015091180160911E0170911D01CB
:1001200081E0680F731F60931E0170931D014617D5
:1001300057074CF4F894A0E0A0936F00A6BFA0E08E
:10014000A09380007894A09188009A0FA0918900D4
:100150002A1F209389009093880030FD00C03093BF
:100160001C010895FC0111821082158214821282F2
:1001700082E0838391E1968387830895CF93DF9311
:10018000EC0181E00E94B5018FED9EE20197F1F74D
:1001900000C0000082E00E94B5016B818A810E944C
:1001A0004E028CE70E94C7016B816F5F8A810E94BB
:1001B0004E028CE70E94C7016F818E810E944E0221
:1001C0008CE70E94C7016F816F5F8E810E944E0293
:1001D0008CE70E94C701DF91CF91089587B187B95D
:1001E00087B187B987B187B987B187B988B1886086
:1001F00088B988B1846088B988B1826088B988B1CB
:10020000816088B984B1806284B90895FC01339912
:1002100003C081E0818301C01182329903C081E073
:10022000808301C01082319903C081E0858301C0C1
:100230001582309903C081E0848308951482089563
:10024000FC018181882329F08081882311F01182AB
:1002500010828581882329F08481882311F01582FA
:1002600014828081882321F08381823008F41082F7
:100270008481882321F08781823008F4148281816F
:10028000882321F08381833008F0118285818823BF
:1002900021F08781833008F015820895FC01808168
:1002A000882319F08381815083838181882319F009
:1002B00083818F5F83838481882319F087818150B4
:1002C00087838581882319F087818F5F87830895CD
:1002D00084EA8093BC008091BC008823E4F78EE41C
:1002E0008093BB0084E88093BC008091BC0088238D
:1002F000E4F7089584E98093BC008FE891E00197CA
:10030000F1F700C000000895CF93C82F87E20E9444
:100310006801C860C093BB0084E88093BC008091F2
:10032000BC008823E4F70E947A01CF910895CF930F
:10033000C82F84600E94840185E08A95F1F700004F
:100340008C2F8B7F0E94840187EC90E00197F1F75E
:1003500000C00000CF910895CF93C82F0E94840160
:100360008C2F0E949701CF910895CF93C82F807F43
:100370000E94AC018C2F8295807F0E94AC018FE996
:100380009FE00197F1F700C00000CF910895CF934F
:10039000C82F807F81600E94AC0120E1C29FC00114
:1003A000112481600E94AC018FE99FE00197F1F771
:1003B00000C00000CF910895FF920F931F93CF9339
:1003C000DF93F82E8B01C0E0D0E010C08F2D877036
:1003D000880F880F880F8C0F80640E94B501F80188
:1003E000EC0FFD1F80810E94C7012196C830D10506
:1003F0006CF3DF91CF911F910F91FF90089587B11A
:1004000087B987B187B988B1806188B988B18062BE
:1004100088B988E48093B8001092B90084E0809392
:10042000BC0088E00E94840180E00E94AC018FE45F
:1004300096E40197F1F700C0000083E00E94AC0150
:100440008FE496E40197F1F700C0000083E00E947A
:10045000AC0187E592E00197F1F700C0000082E06F
:100460000E94AC0188E20E94B5018CE00E94B501B7
:1004700060E171E081E090E00E94DC0168E071E001
:1004800082E090E00E94DC0160E071E083E090E0B7
:100490000E94DC0181E00E94B50108951F93CF9373
:1004A000DF93182FC62F82E00E94B501C23021F0E1
:1004B000C33019F4C2E001C0C3E06C2F70E080E0EB
:1004C00003C08C5E6150710962307105D4F7180F5A
:1004D000C0E0D0E004C084E10E94B5012196212F44
:1004E00030E02C173D07BCF7DF91CF911F910895A5
:1004F000CF93DF93CDB7DEB728970FB6F894DEBF62
:100500000FBECDBF2FEF83ED90E321508040904090
:10051000E1F700C00000F894CE0101960E94EE00C1
:100520000E94FF01CE0101960E94B200CE01019609
:100530000E940601CE0101960E942001CE01019683
:100540000E944E01CE0101960E94BE002FEF81EE67
:1005500094E0215080409040E1F700C00000E6CFD9
:100560001F920F920FB60F9211242F933F934F9328
:100570005F936F937F938F939F93AF93BF93EF930B
:10058000FF930E947900FF91EF91BF91AF919F91EE
:100590008F917F916F915F914F913F912F910F902C
:0C05A0000FBE0F901F901895F894FFCF2D
:1005AC0001010101010101011010101010101010B7
:0C05BC00000E1F1F1F0E00007878F803CF
:00000001FF
