:100000000C945A000C9477000C9477000C947700B1
:100010000C9477000C9477000C9477000C94770084
:100020000C9477000C9477000C9477000C94720277
:100030000C9477000C9477000C9477000C94770064
:100040000C9477000C9477000C9477000C94770054
:100050000C9477000C9477000C9477000C94770044
:100060000C9477000C9477000C9477000C94770034
:100070000C9477000C9477000C9477000C94770024
:100080000C9477000C9477000C9477000C94770014
:100090000C9477000C9477000C9477000C94770004
:1000A0000C9477000C9477000C9477000C947700F4
:1000B0000C94770011241FBECFEFD8E0DEBFCDBF78
:1000C00011E0A0E0B1E0E0E3F5E002C005900D92A0
:1000D000A430B107D9F721E0A4E0B1E001C01D923E
:1000E000A730B207E1F70E9443020C9496020C94E9
:1000F00000003091040130FD06C090910201209172
:10010000030131E020C0909102012091030130E011
:10011000409101015091000160910601709105012B
:1001200081E0680F731F6093060170930501461705
:1001300057074CF4F894A0E0A0936F00A6BFA0E08E
:10014000A09380007894A09188009A0FA0918900D4
:100150002A1F209389009093880030FD00C03093BF
:1001600004010895FC01118210821582148212820A
:1001700082E0838391E1968387830895CF93DF9311
:10018000EC0181E00E94B5018FED9EE20197F1F74D
:1001900000C0000082E00E94B5016B818A810E944C
:1001A00019028CE70E9404026B816F5F8A810E94B2
:1001B00019028CE70E9404026F818E810E9419024D
:1001C0008CE70E9404026F816F5F8E810E9419028A
:1001D0008CE70E940402DF91CF91089587B187B91F
:1001E00087B187B987B187B987B187B988B1886086
:1001F00088B988B1846088B988B1826088B988B1CB
:10020000816088B984B1806284B90895FC01339912
:1002100003C081E0818301C01182329903C081E073
:10022000808301C01082319903C081E0858301C0C1
:100230001582309903C081E0848308951482089563
:10024000FC018181882329F08081882311F01182AB
:1002500010828581882329F08481882311F01582FA
:1002600014828081882321F08381823008F41082F7
:100270008481882321F08781823008F4148281816F
:10028000882321F08381843008F0118285818823BE
:1002900021F08781843008F015820895FC01808167
:1002A000882319F08381815083838181882319F009
:1002B00083818F5F83838481882319F087818150B4
:1002C00087838581882319F087818F5F87830895CD
:1002D00084EA8093BC008091BC008823E4F78EE41C
:1002E0008093BB0084E88093BC008091BC0088238D
:1002F000E4F7089584E98093BC008FE891E00197CA
:10030000F1F700C000000895CF93C82F87E20E9444
:100310006801C860C093BB0084E88093BC008091F2
:10032000BC008823E4F70E947A01CF910895CF930F
:10033000C82F84600E94840185E08A95F1F700004F
:100340008C2F8B7F0E94840187EC90E00197F1F75E
:1003500000C00000CF910895CF93C82F0E94840160
:100360008C2F0E949701CF910895CF93C82F807F43
:100370000E94AC018C2F8295807F0E94AC018FE996
:100380009FE00197F1F700C00000CF91089587B179
:1003900087B987B187B988B1806188B988B180622F
:1003A00088B988E48093B8001092B90084E0809303
:1003B000BC0088E00E94840180E00E94AC018FE4D0
:1003C00096E40197F1F700C0000083E00E94AC01C1
:1003D0008FE496E40197F1F700C0000083E00E94EB
:1003E000AC0187E592E00197F1F700C0000082E0E0
:1003F0000E94AC0188E20E94B5018CE00E94B50128
:1004000081E00E94B5010895CF93C82F807F81605D
:100410000E94AC0120E1C29FC001112481600E94B2
:10042000AC018FE99FE00197F1F700C00000CF9188
:1004300008951F93CF93DF93182FC62F82E00E9459
:10044000B501C23021F0C33019F4C2E001C0C3E0ED
:100450006C2F70E080E003C08C5E615071096230E7
:100460007105D4F7180FC0E0D0E004C084E10E9409
:10047000B5012196212F30E02C173D07BCF7DF9105
:10048000CF911F910895CF93DF93CDB7DEB7289713
:100490000FB6F894DEBF0FBECDBFF894CE01019623
:1004A0000E94EE000E94C701CE0101960E94B20098
:1004B000CE0101960E940601CE0101960E94200104
:1004C000CE0101960E944E01CE0101960E94BE000F
:1004D0002FEF81EE94E0215080409040E1F700C082
:1004E0000000E6CF1F920F920FB60F9211242F93A8
:1004F0003F934F935F936F937F938F939F93AF93AC
:10050000BF93EF93FF930E947900FF91EF91BF910A
:10051000AF919F918F917F916F915F914F913F919B
:100520002F910F900FBE0F901F901895F894FFCF4A
:040530007878F803DC
:00000001FF
