:100000000C945A000C9477000C9477000C947700B1
:100010000C9477000C9477000C9477000C94770084
:100020000C9477000C9477000C9477000C94C50026
:100030000C9477000C9477000C9477000C94770064
:100040000C9477000C9477000C9477000C94770054
:100050000C9477000C9477000C9477000C94770044
:100060000C9477000C9477000C9477000C94770034
:100070000C9477000C9477000C9477000C94770024
:100080000C9477000C9477000C9477000C94770014
:100090000C9477000C9477000C9477000C94770004
:1000A0000C9477000C9477000C9477000C947700F4
:1000B0000C94770011241FBECFEFD8E0DEBFCDBF78
:1000C00011E0A0E0B1E0E6EDF1E002C005900D9294
:1000D000A430B107D9F721E0A4E0B1E001C01D923E
:1000E000A730B207E1F70E94B7000C94E9000C9426
:1000F00000003091040130FD06C090910201209172
:10010000030131E020C0909102012091030130E011
:10011000409101015091000160910601709105012B
:1001200081E0680F731F6093060170930501461705
:1001300057074CF4F894A0E0A0936F00A6BFA0E08E
:10014000A09380007894A09188009A0FA0918900D4
:100150002A1F209389009093880030FD00C03093BF
:1001600004010895359902C080E285B90895F89494
:100170000E94B20087B187B988B1806288B984B122
:10018000806284B90E94B200FDCF1F920F920FB619
:100190000F9211242F933F934F935F936F937F930D
:1001A0008F939F93AF93BF93EF93FF930E94790038
:1001B000FF91EF91BF91AF919F918F917F916F913F
:1001C0005F914F913F912F910F900FBE0F901F9015
:0601D0001895F894FFCF22
:0401D6007878F8033A
:00000001FF
