S00C0000506F6E672E7372656384
S11300000C945A000C9477000C9477000C947700AD
S11300100C9477000C9477000C9477000C94770080
S11300200C9477000C9477000C9477000C943101B5
S11300300C9477000C9477000C9477000C94770060
S11300400C9477000C9477000C9477000C94770050
S11300500C9477000C9477000C9477000C94770040
S11300600C9477000C9477000C9477000C94770030
S11300700C9477000C9477000C9477000C94770020
S11300800C9477000C9477000C9477000C94770010
S11300900C9477000C9477000C9477000C94770000
S11300A00C9477000C9477000C9477000C947700F0
S11300B00C94770011241FBECFEFD8E0DEBFCDBF74
S11300C011E0A0E0B1E0E6EDF2E002C005900D928F
S11300D0A430B107D9F721E0A4E0B1E001C01D923A
S11300E0A730B207E1F70E9455010C9469010C9402
S11300F00000F8940FEF04B900EC0093800001E0D5
S11301000093810000E80093820000E400938000E3
S1130110209103011091020100918400100F0091BD
S11301208500201F209389001093880030E002E0AE
S113013000936F0006BF789408953091040130FD58
S113014006C0109102012091030131E020C01091FA
S113015002012091030130E040910101509100011E
S1130160609106017091050181E0680F731F60932F
S1130170060170930501461757074CF4F89400E004
S113018000936F0006BF00E0009380007894009114
S11301908800100F00918900201F2093890010937C
S11301A0880030FD00C0309304010895FC011182E1
S11301B010821382128287B187B987B187B987B158
S11301C087B987B187B988B1886088B988B18460F4
S11301D088B988B1826088B988B1816088B984B1EE
S11301E0806284B90895FC01339903C081E081835E
S11301F001C01182329903C081E0808301C0108262
S1130200319903C081E0838301C01382309903C014
S113021081E08283089512820895FC0181818823FC
S113022029F08081882311F0118210828381882330
S113023029F08281882311F0138212828181811135
S113024081E09081911181E09381911181E092810B
S1130250911181E0882319F080E285B9089515B8D9
S113026008951F920F920FB60F9211242F933F936C
S11302704F935F936F937F938F939F93AF93BF93AA
S1130280EF93FF930E949D00FF91EF91BF91AF9177
S11302909F918F917F916F915F914F913F912F919A
S11302A00F900FBE0F901F901895CF93DF9300D03F
S11302B000D0CDB7DEB7F894CE0101960E94D600E7
S11302C0CE0101960E94F300CE0101960E940D0119
S10902D0F7CFF894FFCF04
S10702D67878F80335
S9030000FC
