:100000000C945A000C9477000C9477000C947700B1
:100010000C9477000C9477000C9477000C94770084
:100020000C9477000C9477000C9477000C940D01DD
:100030000C9477000C9477000C9477000C94770064
:100040000C9477000C9477000C9477000C94770054
:100050000C9477000C9477000C9477000C94770044
:100060000C9477000C9477000C9477000C94770034
:100070000C9477000C9477000C9477000C94770024
:100080000C9477000C9477000C9477000C94770014
:100090000C9477000C9477000C9477000C94770004
:1000A0000C9477000C9477000C9477000C947700F4
:1000B0000C94770011241FBECFEFD8E0DEBFCDBF78
:1000C00011E0A0E0B1E0E4E1F4E002C005900D929F
:1000D000A430B107D9F721E0A4E0B1E001C01D923E
:1000E000A730B207E1F70E9431010C9408020C948A
:1000F0000000F8940FEF04B900EC0093800001E0D9
:100100000093810000E80093820000E400938000E7
:10011000209103011091020100918400100F0091C1
:100120008500201F209389001093880030E002E0B2
:1001300000936F0006BF789408953091040130FD5C
:1001400006C0109102012091030131E020C01091FE
:1001500002012091030130E0409101015091000122
:10016000609106017091050181E0680F731F609333
:10017000060170930501461757074CF4F89400E008
:1001800000936F0006BF00E0009380007894009118
:100190008800100F00918900201F20938900109380
:1001A000880030FD00C0309304010895CF92DF92A3
:1001B000EF92FF92CF93DF93EB016C01990FEE0862
:1001C000FF0860E271EA87E090E0A70196010E94D3
:1001D000A501285E3F4F3093030120930201109246
:1001E00006011092050110920401DE01A70196019B
:1001F0000E94C40128EE33E040E050E00E94A501D7
:1002000030930001209301010E947900DF91CF918A
:10021000FF90EF90DF90CF9008951F920F920FB64E
:100220000F9211242F933F934F935F936F937F937C
:100230008F939F93AF93BF93EF93FF930E949D0083
:10024000FF91EF91BF91AF919F918F917F916F91AE
:100250005F914F913F912F910F900FBE0F901F9084
:100260001895F89460EA7FE085E091E00E94D6005E
:100270002FE382E49FE0215080409040E1F700C0EE
:10028000000060EA7FE085E091E00E94D6002FE365
:1002900082E49FE0215080409040E1F700C00000E0
:1002A00060EA7FE088E891E00E94D6002FE382E4D4
:1002B0009FE0215080409040E1F700C0000060EADC
:1002C0007FE088E891E00E94D6002FE382E49FE07F
:1002D000215080409040E1F700C0000060EA7FE0DC
:1002E00088EB91E00E94D6002FE382E49FE021504A
:1002F00080409040E1F700C0000060EA7FE088EBBA
:1003000091E00E94D6002FE382E49FE021508040DC
:100310009040E1F700C0000060EA7FE088E891E0EB
:100320000E94D6002FE382E49FE02150804090405D
:10033000E1F700C000002FEF83ED90E321508040F3
:100340009040E1F700C000008DCF052E97FB1EF412
:1003500000940E94BC0157FD07D00E94CC0107FC0D
:1003600003D04EF40C94BC015095409530952195E6
:100370003F4F4F4F5F4F08959095809570956195D1
:100380007F4F8F4F9F4F0895B7FF0C94EE010E944F
:10039000EE01821B930B0895A1E21A2EAA1BBB1B30
:1003A000FD010DC0AA1FBB1FEE1FFF1FA217B30741
:1003B000E407F50720F0A21BB30BE40BF50B661F57
:1003C000771F881F991F1A9469F76095709580951B
:1003D00090959B01AC01BD01CF0108950E94F901E8
:1003E000A59F900DB49F900DA49F800D911D112489
:1003F0000895A29FB001B39FC001A39F700D811DFE
:100400001124911DB29F700D811D1124911D08951D
:04041000F894FFCF8E
:040414007878F803F9
:00000001FF
